:100000000A128A11FC2F00308A000408840A820731
:1000100000345734613474346534723420344C34D1
:100020006534763465346C3420344834493447348C
:1000300048340034573461347434653472342034B5
:100040004C346534763465346C3420344D34493462
:100050004434003457346134743465347234203499
:100060004C346534763465346C3420344C344F343D
:1000700057340034831603130710871483120313B5
:10008000071008008316031388013430F400F130A0
:10009000F300F30B4928F40B49284E2802300A12CA
:1000A0008A11EE200A128A1128300A128A11EE20D3
:1000B0000A128A110C300A128A11EE200A128A11D1
:1000C00006300A128A11EE200A128A1101300A1231
:1000D0008A11EE200A128A110630F4003030F30043
:1000E000F30B7028F40B70280000080070308316A2
:1000F00003138F000A128A1142200A128A110A126F
:100100008A113A200A128A118316031306108312E9
:10011000031306100A128A1589270A128A118312FC
:1001200003135F08E9005E08E80001300A128A1133
:10013000EE200A128A1180300A128A11EE200A1269
:100140008A11003083120313690210300319680208
:100150000318AB28AC28B7280130F3000A128A151F
:10016000D0260A128A11831203130614DC280030E9
:1001700069023D30031968020318BF28C028CB2844
:100180001230F3000A128A15D0260A128A1183123D
:1001900003130610DC28003069025A300319680284
:1001A000031CD328D428DC282230F3000A128A1535
:1001B000D0260A128A11C7280B3083120313E700D6
:1001C0002630E6005D30E500E50BE428E60BE42888
:1001D000E70BE4288A280A128A110028F200831209
:1001E000031308107208F00004300310F00CFF3EF7
:1001F000031DF5287018FD28012983120313081523
:1002000004298312031308117208F000053003104B
:10021000F00CFF3E031D072970180F2913298312C4
:100220000313881516298312031388117208F0002E
:1002300006300310F00CFF3E031D19297018212908
:100240002529831203130816282983120313081281
:100250007208F00007300310F00CFF3E031D2B293D
:100260007018332937298312031388163A29831209
:100270000313881288140630F1003030F000F00BC0
:100280003F29F10B3F2900008312031388107218D5
:100290004A294E2983120313081551298312031387
:1002A00008117208F00001300310F00CFF3E031D2E
:1002B000542970185C296029831203138815632957
:1002C0008312031388117208F00002300310F00C3F
:1002D000FF3E031D662970186E29722983120313CD
:1002E000081675298312031308127208F0000330F0
:1002F0000310F00CFF3E031D782970188029842913
:100300008312031388168729831203138812881413
:100310000630F1003030F000F00B8C29F10B8C2905
:1003200000008312031388100800F20083120313E5
:1003300008147208F00004300310F00CFF3E031D97
:100340009C297018A429A829831203130815AB2926
:100350008312031308117208F00005300310F00C2B
:10036000FF3E031DAE297018B629BA298312031364
:100370008815BD298312031388117208F000063016
:100380000310F00CFF3E031DC0297018C829CC29AA
:10039000831203130816CF2983120313081272085D
:1003A000F00007300310F00CFF3E031DD229701837
:1003B000DA29DE29831203138816E1298312031335
:1003C000881288140630F1003030F000F00BE62976
:1003D000F10BE62900008312031388107218F1292B
:1003E000F529831203130815F82983120313081142
:1003F0007208F00001300310F00CFF3E031DFB29D2
:100400007018032A072A8312031388150A2A8312F5
:10041000031388117208F00002300310F00CFF3E45
:10042000031D0D2A7018152A192A831203130816A2
:100430001C2A8312031308127208F0000330031001
:10044000F00CFF3E031D1F2A7018272A2B2A831247
:10045000031388162E2A8312031388128814063079
:10046000F1003030F000F00B332AF10B332A00009A
:100470008312031388100800F80078080319412A32
:10048000422A562AF31F452A462A562A7009FA009C
:100490007109FB007209FC007309FD00FA0A0319D7
:1004A000FB0A0319FC0A0319FD0A5E2A7308FD0002
:1004B0007208FC007108FB007008FA0073087204EF
:1004C00071047004031D652A662A6F2A0030F30048
:1004D0000030F2000030F1000030F000EF2A9630DA
:1004E000F9007D2A0130F90701300310FD0CFC0CE6
:1004F000FB0CFA0CFF3E031D752AFE307D05031D23
:10050000822A832A722A9D2A0130F9070130FA07CC
:10051000003003180130FB07003003180130FC07DE
:10052000003003180130FD0701300310FD0CFC0CF6
:10053000FB0CFA0CFF3E031D952AFF307D05031DC1
:10054000A22AA32A842AAF2A0130F9020130F4003A
:100550000310FA0DFB0DFC0DFD0DF40BA82AFC1B7E
:10056000B22AB32AB92A023079020318B82AB92A62
:10057000A42A7918BC2ABD2AC52AFF30FA05FF3003
:10058000FB057F30FC05FF30FD050310F90C7908F1
:10059000F400F501F601F70118300310F40DF50D24
:1005A000F60DF70DFF3E031DCD2A7408FA047508F9
:1005B000FB047608FC047708FD0478080319E12A97
:1005C000E22AE72AF31FE52AE62AE72AFD177D0833
:1005D000F3007C08F2007B08F1007A08F0000800C4
:1005E000831203134108CB008030CB054108C200C1
:1005F0004207D200C01FFD2AFE2AFF2A52145208C9
:100600000319032B042B142B520A031D082B092B4F
:10061000112B0030C1000030C0000030BF0000309E
:10062000BE00C017C1011C2B0030C1000030C0004B
:100630000030BF000030BE003D088039CB063D08C9
:10064000C2004207D300BC1F262B272B282B531494
:10065000530803192C2B2D2B3D2B530A031D312B33
:10066000322B3A2B0030BD000030BC000030BB0004
:100670000030BA00BC17BD01452B0030BD00003072
:10068000BC000030BB000030BA003D083C043B0415
:100690003A04031D4C2B4D2B642B0030C10000305D
:1006A000C0000030BF000030BE008030C0047F308A
:1006B000C1044B08C1044108BD004008BC003F080C
:1006C000BB003E08BA00B92C5208031D682B692BE9
:1006D000722B0030BD000030BC000030BB00003089
:1006E000BA00B92C5208C200C3014308C500530820
:1006F0004202C400031CC50344087F3ECC004508E9
:100700000318013E003ECD004108CA004008C90060
:100710003F08C8003E08C7000030C1000030C000DC
:100720000030BF000030BE000030D1000030D000EB
:100730000030CF000030CE00D301E62B5308031960
:10074000A22BA32BC32B0130C2000310C70DC80D71
:10075000C90DCA0DC20BA52B0130C2000310BE0D7E
:10076000BF0DC00DC10DC20BAE2BD11FB82BB92BC5
:10077000BA2B3E140130C2000310CE0DCF0DD00DA8
:10078000D10DC20BBC2B3D084A02031DD12B3C08E6
:100790004902031DD12B3B084802031DD12B3A0807
:1007A0004702031CD42BD52BE42B51173A08C70260
:1007B0003B08031C3B0FC8023C08031C3C0FC9024A
:1007C0003D08031C3D0FCA020130D3071A30530203
:1007D000031CEB2BEC2B9E2B4A08490448044704CE
:1007E0000319F32BF42B132C4E14132C0130C200DD
:1007F0000310BE0DBF0DC00DC10DC20BF82BD11FD4
:10080000022C032C042C3E140130C2000310CE0D28
:10081000CF0DD00DD10DC20B062CFF30CC07031825
:10082000CD0AFF30CD07C01F162C172CF62BD30195
:10083000D11F1B2C1C2C382CFF304E05C200FF3062
:100840004F05C300FF305005C4007F305105C5007F
:10085000450844044304420403192F2C302C332C44
:100860000130D300382C3E1C362C372C382C302C41
:10087000530803193C2C3D2C6E2C0130BE07003070
:1008800003180130BF07003003180130C0070030E3
:1008900003180130C107411C4E2C4F2C6E2C3E0812
:1008A000C2003F08C3004008C4004108C500013031
:1008B000C600450DC50CC40CC30CC20CC60B592C8C
:1008C0004508C1004408C0004308BF004208BE00FC
:1008D0000130CC070318CD0A0030CD074D08803A0F
:1008E000FF0080307F02031D772CFF304C02031C79
:1008F0007A2C7B2C892CFF3083120313CC00003020
:10090000CD000030C1000030C0000030BF0000301A
:10091000BE00831203134D08803AFF0080307F022F
:10092000031D942C01304C020318972C982CA52CF5
:1009300083120313CC01CD010030C1000030C00090
:100940000030BF000030BE00CB01831203134C08FF
:10095000D200521CAC2CAD2CAF2CC017B12C7F3068
:10096000C0055208C2000310420CC1004B08C1046C
:100970005B2B0800831203132308AD008030AD0504
:100980002308A8002807B300A21FC72CC82CC92C15
:10099000331433080319CD2CCE2CDD2C330A031D60
:1009A000D22CD32CDB2C0030A3000030A20000306E
:1009B000A1000030A000A217E52C0030A3000030F9
:1009C000A2000030A1000030A00027088039AD0649
:1009D0002708A8002807B200A61FEF2CF02CF12C46
:1009E000321432080319F52CF62C052D320A031D9A
:1009F000FA2CFB2C032D0030A7000030A60000309D
:100A0000A5000030A400A6170D2D0030A70000306F
:100A1000A6000030A5000030A40032080319112DF3
:100A2000122D172D3308031D162D172D202D0030E4
:100A3000A3000030A2000030A1000030A000FB2F76
:100A40002008F00026080A128A15EC260A128A11DC
:100A5000710883120313B9007008B8003808A800A1
:100A6000A901AA01AB012B08B1002A08B00029088E
:100A7000AF002808AE003908A800A901AA01AB01FF
:100A80002B08B7002A08B6002908B5002808B400CA
:100A90002108F00025080A128A15EC260A128A118C
:100AA000710883120313B9007008B8003808A80051
:100AB000A901AA01AB012808AE07290803110318F0
:100AC000013E0319642DAF072A0803110318013EE4
:100AD00003196B2DB0072B0803110318013E0319EE
:100AE000722DB1073908A800A901AA01AB01280895
:100AF000B407290803110318013E0319802DB50717
:100B00002A0803110318013E0319872DB6072B0885
:100B100003110318013E03198E2DB7072208F000B8
:100B200024080A128A15EC260A128A117108831207
:100B30000313B9007008B8003808A800A901AA0179
:100B4000AB012808AE07290803110318013E031959
:100B5000AA2DAF072A0803110318013E0319B12D6E
:100B6000B0072B0803110318013E0319B82DB10774
:100B70003908A800A901AA01AB012808B40729086F
:100B800003110318013E0319C62DB5072A080311E6
:100B90000318013E0319CD2DB6072B0803110318C6
:100BA000013E0319D42DB7070830A8000310AE0D7D
:100BB000AF0DB00DB10DA80BD62D2108F000240803
:100BC0000A128A15EC260A128A117108831203137D
:100BD000B9007008B8003808A8003908A900AA01AF
:100BE000AB012808AE07290803110318013E0319B9
:100BF000FA2DAF072A0803110318013E0319012E2D
:100C0000B0072B0803110318013E0319082EB10782
:100C10002008F00025080A128A15EC260A128A110B
:100C2000710883120313B9007008B8003808A800CF
:100C30003908A900AA01AB012808AE072908031149
:100C40000318013E0319252EAF072A0803110318C4
:100C5000013E03192C2EB0072B0803110318013E87
:100C60000319332EB1070830A8000310AE0DAF0DE5
:100C7000B00DB10DA80B352E2008F00024080A1283
:100C80008A15EC260A128A11710883120313B9001F
:100C90007008B8003808A8003908A900AA01AB01FB
:100CA0002808AE07290803110318013E0319592E1D
:100CB000AF072A0803110318013E0319602EB0077D
:100CC0002B0803110318013E0319672EB1072108F1
:100CD000F00026080A128A15EC260A128A117108F9
:100CE00083120313B9007008B8003808A800390847
:100CF000A900AA01AB012808B407290803110318A9
:100D0000013E0319842EB5072A0803110318013E7A
:100D100003198B2EB6072B0803110318013E031984
:100D2000922EB7072208F00025080A128A15EC2631
:100D30000A128A11710883120313B9007008B800EF
:100D40003808A8003908A900AA01AB012808B4078F
:100D5000290803110318013E0319AF2EB5072A080D
:100D600003110318013E0319B62EB6072B08031111
:100D70000318013E0319BD2EB7072208F00026080C
:100D80000A128A15EC260A128A11710883120313BB
:100D9000B9007008B8003808A8003908A900AA01ED
:100DA000AB0108300310A80DA90DAA0DAB0DFF3E35
:100DB000031DD22E2808B407290803110318013E89
:100DC0000319E32EB5072A0803110318013E03197E
:100DD000EA2EB6072B0803110318013E0319F12E62
:100DE000B7072E08A8002F08A9003008AA0031086C
:100DF000AB0018300310AB0CAA0CA90CA80CFF3EDA
:100E0000031DFA2E2808B407290803110318013E10
:100E100003190B2FB5072A0803110318013E031904
:100E2000122FB6072B0803110318013E0319192FBF
:100E3000B7070830A8000310AE0DAF0DB00DB10D0F
:100E4000A80B1B2F33083207A800A901A90D2808F9
:100E5000823EB80029080318013EFF3EB9004D2F1D
:100E60000130A8000310B40DB50DB60DB70DA80BD9
:100E7000322FB11F3C2F3D2F3E2F34140130A800DC
:100E80000310AE0DAF0DB00DB10DA80B402FFF300C
:100E9000B8070318B90AFF30B907B61F502F512FF2
:100EA000302FB201B11F552F562F722FFF302E0554
:100EB000A800FF302F05A900FF303005AA007F30C1
:100EC0003105AB002B082A04290428040319692FD3
:100ED0006A2F6D2F0130B200722F341C702F712FCA
:100EE000722F6A2F32080319762F772FA82F01301F
:100EF000B407003003180130B50700300318013083
:100F0000B607003003180130B707371C882F892F28
:100F1000A82F3408A8003508A9003608AA00370809
:100F2000AB000130AC002B0DAB0CAA0CA90CA80C2B
:100F3000AC0B932F2B08B7002A08B6002908B50080
:100F40002808B4000130B8070318B90A0030B907FF
:100F50003908803AFF0080307F02031DB12FFF3037
:100F60003802031CB42FB52FC02F7F308312031318
:100F7000B7008030B6000030B5000030B400F12F6B
:100F8000831203133908803AFF0080307F02031D6B
:100F9000CB2F013038020318CE2FCF2FDB2F00309C
:100FA00083120313B7000030B6000030B5000030E4
:100FB000B400AD01F12F831203133808B300FF30E2
:100FC000B405FF30B5057F30B6050030B705331CDA
:100FD000EA2FEB2FEC2FB6173308A8000310280CCC
:100FE000B7002D08B7043708A3003608A20035085B
:100FF000A1003408A000080083010A128A11762893
:101DA000DF2E730884000A128A1103200A128A1592
:101DB0000A128A1195210A128A150130F307730855
:101DC00084000A128A1103200A128A15003A031DA0
:101DD000EA2EEB2ED12E0800F800F401F501700870
:101DE000F200F3017208F6007308F700781CF92E70
:101DF000FA2E002F7608F4070318F50A7708F5077E
:101E000001300310F60DF70DFF3E031D012F0310E7
:101E1000F80C7808031D0D2F0E2FF62E7508F10013
:101E20007408F0000800031083120313560D570DB9
:101E3000DD005D08031D1D2F1E2F272F0030D7004A
:101E40000030D6000030D5000030D400882F540870
:101E5000D8005508D9005608DA005708DB001F30B3
:101E60000310DB0CDA0CD90CD80CFF3E031D302F0D
:101E70005808DC00D617FF30D405FF30D505FF30F9
:101E8000D6050030D7059630DD02DD1F482F492FDB
:101E9000612F5D08803A973E03184F2F502F512F26
:101EA0001E2F01300310D70CD60CD50CD40CFF3EDE
:101EB000031D522F0130DD07031D5F2F602F512FAF
:101EC000782F20305D02031C662F672F732F1E2F83
:101ED0000130D8000310D40DD50DD60DD70DD80B79
:101EE0006A2F0130DD025D08031D772F782F682FE0
:101EF0005C0803197C2F7D2F882FD409D509D609BA
:101F0000D709D40A0319D50A0319D60A0319D70A1F
:101F100008008312031307108D2F8E2F83120313D3
:101F20000714053083120313E000E00B952F982F60
:101F3000831203130710871C9E2F9F2F9B2F8F0147
:101F40008E01013090008718A62FA72FA32F900194
:101F50000F08E2000E08E1006108F0006208F100DD
:101F6000F201F30100300A128A113C220A128A158A
:101F7000730883120313A7007208A6007108A50056
:101F80007008A4003D30A3000C30A2007E30A100F8
:101F90002830A0000A128A11BA240A128A15831264
:101FA00003132308C1002208C0002108BF00200835
:101FB000BE004030BD000030BC000030BB0000302F
:101FC000BA000A128A11F0220A128A158312031328
:101FD0003D08D7003C08D6003B08D5003A08D4009D
:101FE0000A128A1513270A128A1583120313550839
:101FF000E4005408E3006408DF006308DE00080022
:02400E00F42F8D
:00000001FF
